{
  "_format": "hh3-artifact-1",
  "contractName": "VotingSystem",
  "sourceName": "contracts/VotingSystem.sol",
  "abi": [
    {
      "inputs": [],
      "stateMutability": "nonpayable",
      "type": "constructor"
    },
    {
      "anonymous": false,
      "inputs": [
        {
          "indexed": true,
          "internalType": "uint256",
          "name": "electionId",
          "type": "uint256"
        },
        {
          "indexed": false,
          "internalType": "uint256",
          "name": "totalVotes",
          "type": "uint256"
        }
      ],
      "name": "ElectionClosed",
      "type": "event"
    },
    {
      "anonymous": false,
      "inputs": [
        {
          "indexed": true,
          "internalType": "uint256",
          "name": "electionId",
          "type": "uint256"
        },
        {
          "indexed": false,
          "internalType": "string",
          "name": "title",
          "type": "string"
        },
        {
          "indexed": false,
          "internalType": "uint256",
          "name": "startTime",
          "type": "uint256"
        },
        {
          "indexed": false,
          "internalType": "uint256",
          "name": "endTime",
          "type": "uint256"
        }
      ],
      "name": "ElectionCreated",
      "type": "event"
    },
    {
      "anonymous": false,
      "inputs": [
        {
          "indexed": true,
          "internalType": "uint256",
          "name": "electionId",
          "type": "uint256"
        }
      ],
      "name": "ElectionOpened",
      "type": "event"
    },
    {
      "anonymous": false,
      "inputs": [
        {
          "indexed": true,
          "internalType": "uint256",
          "name": "electionId",
          "type": "uint256"
        },
        {
          "indexed": true,
          "internalType": "bytes32",
          "name": "tokenHash",
          "type": "bytes32"
        }
      ],
      "name": "TokenRegistered",
      "type": "event"
    },
    {
      "anonymous": false,
      "inputs": [
        {
          "indexed": true,
          "internalType": "uint256",
          "name": "electionId",
          "type": "uint256"
        },
        {
          "indexed": true,
          "internalType": "bytes32",
          "name": "voteHash",
          "type": "bytes32"
        },
        {
          "indexed": false,
          "internalType": "uint256",
          "name": "timestamp",
          "type": "uint256"
        }
      ],
      "name": "VoteCast",
      "type": "event"
    },
    {
      "inputs": [
        {
          "internalType": "uint256",
          "name": "electionId",
          "type": "uint256"
        }
      ],
      "name": "calculateVotesMerkleRoot",
      "outputs": [
        {
          "internalType": "bytes32",
          "name": "",
          "type": "bytes32"
        }
      ],
      "stateMutability": "view",
      "type": "function"
    },
    {
      "inputs": [
        {
          "internalType": "uint256",
          "name": "electionId",
          "type": "uint256"
        },
        {
          "internalType": "bytes32",
          "name": "anonymousTokenHash",
          "type": "bytes32"
        },
        {
          "internalType": "bytes",
          "name": "encryptedBallot",
          "type": "bytes"
        }
      ],
      "name": "castVote",
      "outputs": [
        {
          "internalType": "bytes32",
          "name": "",
          "type": "bytes32"
        }
      ],
      "stateMutability": "nonpayable",
      "type": "function"
    },
    {
      "inputs": [
        {
          "internalType": "uint256",
          "name": "electionId",
          "type": "uint256"
        }
      ],
      "name": "closeElection",
      "outputs": [],
      "stateMutability": "nonpayable",
      "type": "function"
    },
    {
      "inputs": [
        {
          "internalType": "string",
          "name": "title",
          "type": "string"
        },
        {
          "internalType": "uint256",
          "name": "startTime",
          "type": "uint256"
        },
        {
          "internalType": "uint256",
          "name": "endTime",
          "type": "uint256"
        },
        {
          "internalType": "bytes32",
          "name": "candidatesMerkleRoot",
          "type": "bytes32"
        }
      ],
      "name": "createElection",
      "outputs": [
        {
          "internalType": "uint256",
          "name": "",
          "type": "uint256"
        }
      ],
      "stateMutability": "nonpayable",
      "type": "function"
    },
    {
      "inputs": [],
      "name": "electionAuthority",
      "outputs": [
        {
          "internalType": "address",
          "name": "",
          "type": "address"
        }
      ],
      "stateMutability": "view",
      "type": "function"
    },
    {
      "inputs": [],
      "name": "electionCount",
      "outputs": [
        {
          "internalType": "uint256",
          "name": "",
          "type": "uint256"
        }
      ],
      "stateMutability": "view",
      "type": "function"
    },
    {
      "inputs": [
        {
          "internalType": "uint256",
          "name": "",
          "type": "uint256"
        }
      ],
      "name": "elections",
      "outputs": [
        {
          "internalType": "uint256",
          "name": "id",
          "type": "uint256"
        },
        {
          "internalType": "string",
          "name": "title",
          "type": "string"
        },
        {
          "internalType": "uint256",
          "name": "startTime",
          "type": "uint256"
        },
        {
          "internalType": "uint256",
          "name": "endTime",
          "type": "uint256"
        },
        {
          "internalType": "bool",
          "name": "isActive",
          "type": "bool"
        },
        {
          "internalType": "bool",
          "name": "isClosed",
          "type": "bool"
        },
        {
          "internalType": "uint256",
          "name": "totalVotes",
          "type": "uint256"
        },
        {
          "internalType": "bytes32",
          "name": "candidatesMerkleRoot",
          "type": "bytes32"
        }
      ],
      "stateMutability": "view",
      "type": "function"
    },
    {
      "inputs": [
        {
          "internalType": "uint256",
          "name": "electionId",
          "type": "uint256"
        }
      ],
      "name": "getElection",
      "outputs": [
        {
          "internalType": "string",
          "name": "title",
          "type": "string"
        },
        {
          "internalType": "uint256",
          "name": "startTime",
          "type": "uint256"
        },
        {
          "internalType": "uint256",
          "name": "endTime",
          "type": "uint256"
        },
        {
          "internalType": "bool",
          "name": "isActive",
          "type": "bool"
        },
        {
          "internalType": "bool",
          "name": "isClosed",
          "type": "bool"
        },
        {
          "internalType": "uint256",
          "name": "totalVotes",
          "type": "uint256"
        }
      ],
      "stateMutability": "view",
      "type": "function"
    },
    {
      "inputs": [
        {
          "internalType": "uint256",
          "name": "electionId",
          "type": "uint256"
        }
      ],
      "name": "getElectionVoteHashes",
      "outputs": [
        {
          "internalType": "bytes32[]",
          "name": "",
          "type": "bytes32[]"
        }
      ],
      "stateMutability": "view",
      "type": "function"
    },
    {
      "inputs": [
        {
          "internalType": "uint256",
          "name": "electionId",
          "type": "uint256"
        }
      ],
      "name": "openElection",
      "outputs": [],
      "stateMutability": "nonpayable",
      "type": "function"
    },
    {
      "inputs": [
        {
          "internalType": "uint256",
          "name": "electionId",
          "type": "uint256"
        },
        {
          "internalType": "bytes32",
          "name": "tokenHash",
          "type": "bytes32"
        }
      ],
      "name": "registerAnonymousToken",
      "outputs": [],
      "stateMutability": "nonpayable",
      "type": "function"
    },
    {
      "inputs": [
        {
          "internalType": "uint256",
          "name": "",
          "type": "uint256"
        },
        {
          "internalType": "bytes32",
          "name": "",
          "type": "bytes32"
        }
      ],
      "name": "usedTokens",
      "outputs": [
        {
          "internalType": "bool",
          "name": "",
          "type": "bool"
        }
      ],
      "stateMutability": "view",
      "type": "function"
    },
    {
      "inputs": [
        {
          "internalType": "uint256",
          "name": "electionId",
          "type": "uint256"
        },
        {
          "internalType": "bytes32",
          "name": "voteHash",
          "type": "bytes32"
        }
      ],
      "name": "verifyVoteInclusion",
      "outputs": [
        {
          "internalType": "bool",
          "name": "exists",
          "type": "bool"
        },
        {
          "internalType": "uint256",
          "name": "timestamp",
          "type": "uint256"
        },
        {
          "internalType": "uint256",
          "name": "blockNumber",
          "type": "uint256"
        }
      ],
      "stateMutability": "view",
      "type": "function"
    },
    {
      "inputs": [
        {
          "internalType": "uint256",
          "name": "",
          "type": "uint256"
        },
        {
          "internalType": "bytes32",
          "name": "",
          "type": "bytes32"
        }
      ],
      "name": "votes",
      "outputs": [
        {
          "internalType": "bytes32",
          "name": "voteHash",
          "type": "bytes32"
        },
        {
          "internalType": "bytes",
          "name": "encryptedBallot",
          "type": "bytes"
        },
        {
          "internalType": "bytes32",
          "name": "anonymousTokenHash",
          "type": "bytes32"
        },
        {
          "internalType": "uint256",
          "name": "timestamp",
          "type": "uint256"
        },
        {
          "internalType": "uint256",
          "name": "blockNumber",
          "type": "uint256"
        }
      ],
      "stateMutability": "view",
      "type": "function"
    }
  ],
  "bytecode": "0x608060405234801561000f575f80fd5b50600480546001600160a01b031916331790555f6005556114b2806100335f395ff3fe608060405234801561000f575f80fd5b50600436106100e5575f3560e01c80638589c7a5116100885780639a1d5956116100635780639a1d5956146102515780639d71077714610264578063c884324e14610289578063dc46d6ea1461029c575f80fd5b80638589c7a5146101df578063878f0625146101f2578063997d283014610248575f80fd5b806333b59234116100c357806333b59234146101535780635b02c137146101735780635b0c8a63146101945780635e6fef01146101b8575f80fd5b806309e33d07146100e95780631cb8bd4a146100fe57806330c9ffff14610140575b5f80fd5b6100fc6100f7366004610f49565b6102c7565b005b61012b61010c366004610f60565b600260209081525f928352604080842090915290825290205460ff1681565b60405190151581526020015b60405180910390f35b6100fc61014e366004610f60565b610429565b610166610161366004610f49565b610539565b6040516101379190610f80565b61018661018136600461104a565b610598565b604051908152602001610137565b6101a76101a2366004610f60565b610785565b6040516101379594939291906110fa565b6101cb6101c6366004610f49565b610840565b60405161013798979695949392919061112f565b6101866101ed36600461117b565b61090e565b61022b610200366004610f60565b5f91825260016020908152604080842092845291905290208054600382015460049092015490151592565b604080519315158452602084019290925290820152606001610137565b61018660055481565b6100fc61025f366004610f49565b610c54565b610277610272366004610f49565b610da0565b604051610137969594939291906111da565b610186610297366004610f49565b610e88565b6004546102af906001600160a01b031681565b6040516001600160a01b039091168152602001610137565b6004546001600160a01b031633146102fa5760405162461bcd60e51b81526004016102f190611217565b60405180910390fd5b5f81815260208190526040902054819081146103285760405162461bcd60e51b81526004016102f19061124e565b5f828152602081905260409020600481015460ff1661037f5760405162461bcd60e51b8152602060048201526013602482015272456c656374696f6e206e6f742061637469766560681b60448201526064016102f1565b6004810154610100900460ff16156103d35760405162461bcd60e51b8152602060048201526017602482015276115b1958dd1a5bdb88185b1c9958591e4818db1bdcd959604a1b60448201526064016102f1565b60048101805461ffff1916610100179055600581015460405184917fd3461d57d954b89a789e6fbd29ff23c87fef073eae45cc372d7e26cb145943539161041c91815260200190565b60405180910390a2505050565b6004546001600160a01b031633146104535760405162461bcd60e51b81526004016102f190611217565b5f82815260208190526040902054829081146104815760405162461bcd60e51b81526004016102f19061124e565b5f83815260026020908152604080832085845290915290205460ff16156104ea5760405162461bcd60e51b815260206004820152601860248201527f546f6b656e20616c72656164792072656769737465726564000000000000000060448201526064016102f1565b5f838152600260209081526040808320858452909152808220805460ff1916905551839185917fd56c2ce9fa42b5af0f6156814b3a237f93905127bd576a4d52d3909ed355b4b49190a3505050565b5f8181526003602090815260409182902080548351818402810184019094528084526060939283018282801561058c57602002820191905f5260205f20905b815481526020019060010190808311610578575b50505050509050919050565b6004545f906001600160a01b031633146105c45760405162461bcd60e51b81526004016102f190611217565b4284116106135760405162461bcd60e51b815260206004820152601c60248201527f53746172742074696d65206d75737420626520696e206675747572650000000060448201526064016102f1565b83831161066c5760405162461bcd60e51b815260206004820152602160248201527f456e642074696d65206d7573742062652061667465722073746172742074696d6044820152606560f81b60648201526084016102f1565b60058054905f61067b83611285565b909155505060055460408051610100810182528281526020808201898152828401899052606083018890525f6080840181905260a0840181905260c0840181905260e084018890528581529182905292902081518155915190919060018201906106e5908261132f565b50604082810151600283015560608301516003830155608083015160048301805460a086015115156101000261ff00199315159390931661ffff199091161791909117905560c0830151600583015560e0909201516006909101555181907fe7a0aae5d733e07e246dea86213a1ac1b0aa8554bde889bb75c12752f44e53d990610774908990899089906113eb565b60405180910390a295945050505050565b600160208181525f93845260408085209091529183529120805491810180546107ad906112a9565b80601f01602080910402602001604051908101604052809291908181526020018280546107d9906112a9565b80156108245780601f106107fb57610100808354040283529160200191610824565b820191905f5260205f20905b81548152906001019060200180831161080757829003601f168201915b5050505050908060020154908060030154908060040154905085565b5f6020819052908152604090208054600182018054919291610861906112a9565b80601f016020809104026020016040519081016040528092919081815260200182805461088d906112a9565b80156108d85780601f106108af576101008083540402835291602001916108d8565b820191905f5260205f20905b8154815290600101906020018083116108bb57829003601f168201915b5050505060028301546003840154600485015460058601546006909601549495929491935060ff80821693610100909204169188565b5f838152602081905260408120600481015485919060ff166109685760405162461bcd60e51b8152602060048201526013602482015272456c656374696f6e206e6f742061637469766560681b60448201526064016102f1565b80600201544210156109b35760405162461bcd60e51b8152602060048201526014602482015273115b1958dd1a5bdb881b9bdd081cdd185c9d195960621b60448201526064016102f1565b80600301544211156109f85760405162461bcd60e51b815260206004820152600e60248201526d115b1958dd1a5bdb88195b99195960921b60448201526064016102f1565b6004810154610100900460ff1615610a445760405162461bcd60e51b815260206004820152600f60248201526e115b1958dd1a5bdb8818db1bdcd959608a1b60448201526064016102f1565b5f86815260026020908152604080832088845290915290205460ff1615610aad5760405162461bcd60e51b815260206004820152601d60248201527f546f6b656e20616c72656164792075736564206f7220696e76616c696400000060448201526064016102f1565b5f8681526002602090815260408083208884528252808320805460ff1916600117905551610ae591899189918991429143910161140f565b60408051601f1981840301815291815281516020928301205f8a81526001845282812082825290935291205490915015610b575760405162461bcd60e51b81526020600482015260136024820152722b37ba32903430b9b41031b7b63634b9b4b7b760691b60448201526064016102f1565b6040805160a08101825282815260208082018881528284018a90524260608401524360808401525f8b815260018084528582208783529093529390932082518155925191929190820190610bab908261132f565b50604082810151600283015560608301516003808401919091556080909301516004909201919091555f8981526020928352818120805460018101825590825283822001849055898152918290528120600501805491610c0a83611285565b919050555080877f2d5d5adff759341f1e2cc20cd5f911101d22fae5437742e48892ad7c1fd5316b42604051610c4291815260200190565b60405180910390a39695505050505050565b6004546001600160a01b03163314610c7e5760405162461bcd60e51b81526004016102f190611217565b5f8181526020819052604090205481908114610cac5760405162461bcd60e51b81526004016102f19061124e565b5f828152602081905260409020600481015460ff1615610d0e5760405162461bcd60e51b815260206004820152601760248201527f456c656374696f6e20616c72656164792061637469766500000000000000000060448201526064016102f1565b6004810154610100900460ff1615610d625760405162461bcd60e51b8152602060048201526017602482015276115b1958dd1a5bdb88185b1c9958591e4818db1bdcd959604a1b60448201526064016102f1565b60048101805460ff1916600117905560405183907f0589f8b93514c651c0c92b06bdb8118fe508daadf2ffdac1f516191be20fcb85905f90a2505050565b5f81815260208190526040812060028101546003820154600483015460058401546001850180546060979687968796879687969395949293919260ff808316936101009093041691908690610df4906112a9565b80601f0160208091040260200160405190810160405280929190818152602001828054610e20906112a9565b8015610e6b5780601f10610e4257610100808354040283529160200191610e6b565b820191905f5260205f20905b815481529060010190602001808311610e4e57829003601f168201915b505050505095509650965096509650965096505091939550919395565b5f81815260036020908152604080832080548251818502810185019093528083528493830182828015610ed857602002820191905f5260205f20905b815481526020019060010190808311610ec4575b505050505090505f815111610f1a5760405162461bcd60e51b81526020600482015260086024820152674e6f20766f74657360c01b60448201526064016102f1565b80604051602001610f2b9190611447565b60405160208183030381529060405280519060200120915050919050565b5f60208284031215610f59575f80fd5b5035919050565b5f8060408385031215610f71575f80fd5b50508035926020909101359150565b602080825282518282018190525f9190848201906040850190845b81811015610fb757835183529284019291840191600101610f9b565b50909695505050505050565b634e487b7160e01b5f52604160045260245ffd5b5f67ffffffffffffffff80841115610ff157610ff1610fc3565b604051601f8501601f19908116603f0116810190828211818310171561101957611019610fc3565b81604052809350858152868686011115611031575f80fd5b858560208301375f602087830101525050509392505050565b5f805f806080858703121561105d575f80fd5b843567ffffffffffffffff811115611073575f80fd5b8501601f81018713611083575f80fd5b61109287823560208401610fd7565b97602087013597506040870135966060013595509350505050565b5f5b838110156110c75781810151838201526020016110af565b50505f910152565b5f81518084526110e68160208601602086016110ad565b601f01601f19169290920160200192915050565b85815260a060208201525f61111260a08301876110cf565b604083019590955250606081019290925260809091015292915050565b5f6101008a83528060208401526111488184018b6110cf565b604084019990995250506060810195909552921515608085015290151560a084015260c083015260e09091015292915050565b5f805f6060848603121561118d575f80fd5b8335925060208401359150604084013567ffffffffffffffff8111156111b1575f80fd5b8401601f810186136111c1575f80fd5b6111d086823560208401610fd7565b9150509250925092565b60c081525f6111ec60c08301896110cf565b602083019790975250604081019490945291151560608401521515608083015260a090910152919050565b60208082526017908201527f4f6e6c7920656c656374696f6e20617574686f72697479000000000000000000604082015260600190565b60208082526017908201527f456c656374696f6e20646f6573206e6f74206578697374000000000000000000604082015260600190565b5f600182016112a257634e487b7160e01b5f52601160045260245ffd5b5060010190565b600181811c908216806112bd57607f821691505b6020821081036112db57634e487b7160e01b5f52602260045260245ffd5b50919050565b601f82111561132a575f81815260208120601f850160051c810160208610156113075750805b601f850160051c820191505b8181101561132657828155600101611313565b5050505b505050565b815167ffffffffffffffff81111561134957611349610fc3565b61135d8161135784546112a9565b846112e1565b602080601f831160018114611390575f84156113795750858301515b5f19600386901b1c1916600185901b178555611326565b5f85815260208120601f198616915b828110156113be5788860151825594840194600190910190840161139f565b50858210156113db57878501515f19600388901b60f8161c191681555b5050505050600190811b01905550565b606081525f6113fd60608301866110cf565b60208301949094525060400152919050565b8581528460208201525f845161142c8160408501602089016110ad565b90910160408101939093525060608201526080019392505050565b81515f9082906020808601845b8381101561147057815185529382019390820190600101611454565b5092969550505050505056fea26469706673582212205a98f72ff869345204dc2a07697395aa9b01472b43d3b90399cfeec4966177c364736f6c63430008140033",
  "linkReferences": {},
  "deployedLinkReferences": {},
  "immutableReferences": {},
  "inputSourceName": "project/contracts/VotingSystem.sol",
  "buildInfoId": "solc-0_8_20-f1485b823e4ffa4b444c26bb80e13dc10e8da25a"
}